:0A0000000C942A000C9400000C94EC
:10000A0000000C9400000C9400000C9400000C9466
:10001A0000000C9400000C9400000C9400000C9456
:10002A0000000C9400000C9400000C9400000C9446
:10003A0000000C9400000C9400000C9400000C9436
:10004A0000000C9400000C940000F894EE27ECBB1E
:10005A00F1E0FBBFEBBFE5BF8DE0A2E0BB27ED936C
:10006A008A95E9F780E098E0A0E6ED930197E9F731
:10007A00EFE5EDBFE8E0EEBFC0E6D2E00C94450044
:10008A00EFB5E26AEFBDEEB5EB61EEBDE3E1E7BDC8
:10009A00E7E8E6BDE1B3EF6FE1BBECE3F1E008D0DE
:1000AA00E1E6F0E005D0E7E1F2E002D0F6CFFFCFDB
:1000BA00FBBDEABDA8E8B3E10C946300109639F0E1
:1000CA0080ED97E00197F1F7A8951197C9F7089580
:00000001FF
