:0A0000000C9461000C9400000C94B5
:10000A0000000C9400000C9400000C9400000C9466
:10001A0000000C9400000C9400000C9400000C9456
:10002A0000000C948E000C9400000C9400000C94B8
:10003A0000000C9400000C9400000C9400000C9436
:10004A0000000C9400000C9400001027E8036400E0
:10005A000A00010000100001100001001200000057
:10006A000000000000000000000000000000000086
:10007A000000000000000000000000000000000076
:10008A00000000000000463A2025642C2025642C3C
:10009A002025640043463A2025642C543A202564DE
:1000AA00000080C001000200660008000400680029
:1000BA0002006002AC000000F894EE27ECBBF1E00D
:1000CA00FBBFEBBFE5BF8DE0A2E0BB27ED938A95AE
:1000DA00E9F780E098E0A0E6ED930197E9F7EEEA08
:1000EA00F0E085919591009761F0A591B591059001
:1000FA001590BF01F00105900D920197E1F7FB0100
:10010A00F0CFEFE5EDBFE8E0EEBFC0E6D2E00C9439
:10011A0018010A921A929A93AA93BA93EA93FA93B3
:10012A00EFB7EA93F20131962F01D201EDE7F0E041
:10013A000E941704309731F4F30131963F01319749
:10014A0044245524E991EFBFF991E991B991A99114
:10015A009991199009901895BA93AA93E881F9810F
:10016A00AAE0B0E00E94FA03A4E1B0E00E94FA0318
:10017A00F9BDE8BD0C941E03BA93AA93E881F981EC
:10018A00A2E3B0E00E94FA03DF01E9E0F0E00E9496
:10019A001204E552FA4FFBBDEABD0C941E03BA9352
:1001AA00AA93A09780E2A0E0B0E0E0E7F0E00E9426
:1001BA004E04FE017096FA93EA93E0E9F0E0FA93AE
:1001CA00EA93ECA1FDA10E949C03F2010E949C0308
:1001DA00F3010E949C038CE00E94BF026096E0E05B
:1001EA00EA93A0E00E941303DE0150960E944303A3
:1001FA00FE01FA93EA93EEE9F0E0FA93EA93F40146
:10020A000E949C03F5010E949C0388E00E94BF02A1
:10021A002C96E0E0EA93A1E00E941303DE010E941B
:10022A004303A2960895EFEFEABBE0E0E7BBEFEFE6
:10023A00E1BBE8BBECE0E3BFE0E0E2BFE9EFECBF23
:10024A00EFB5E26AEFBDEEB5EA61EEBDEEE4E7BDF9
:10025A00EFE1E6BDE1E0E9BFA0E10E945403789432
:10026A00D4019DDFD301E2E0F0E00E941704309749
:10027A0029F0AAE5B0E080DFAAE504C0A0E0B0E07A
:10028A007BDFA0E0B0E068DFEBCFFFCFBA93AA93A1
:10029A001A930A93AA81BB8112960E94330430975B
:1002AA0059F1AA81BB8114960E9433048F013097B9
:1002BA0061F00230E0E01E0798F0F80131978F01F3
:1002CA00AA81BB811496ED93FC93AA81BB811296F5
:1002DA00ED91FD913196FE93EE933197AC81A08317
:1002EA00AA81BB810E943304FF232AF0ED91FD917C
:1002FA003196FE93EE9306C0AA81BB81EFEFFFEF22
:10030A00ED93FC931981088125960895BA93AA93CF
:10031A0026970E94400410E0AC85BD85E0E0F0E03D
:10032A00ED93FC93EA89FB893196EA8BFB8B319733
:10033A00E4912E2FE03009F415C1E12FE03039F4B1
:10034A00253211F411E002C00E94A1030AC1E13072
:10035A00A9F4253219F40E94A10302C112E040E077
:10036A0000E02D3211F401E0FCC02B3211F44BE213
:10037A00F8C0203211F440E2F4C002C0E23039F48D
:10038A0050E013E0203311F40068EBC003C0E330FF
:10039A0009F0E7C0203310F02A3308F007C0AAE0BA
:1003AA005A9F502DE22FE0535E0FDBC0E22FE33657
:1003BA0049F40E94A803E889F989A481AA930E94B2
:1003CA00AE03CEC0E33741F40E94A8030E94B403EF
:1003DA000E9483031E2F0AC0E03761F40E94A8031B
:1003EA000E94B4030E948F031E2F086002600F77D9
:1003FA0030E034C0E43611F0E93611F4046002C08A
:10040A00E53731F4E4E5F0E0EE83FF8315E00CC054
:10041A00E83511F4086003C0E83709F0A1C0EEE539
:10042A00F0E0EE83FF8314E002FF14C00E94A803E9
:10043A000E94BE03AB85AA233AF4EA85FB850E9493
:10044A00E903EA87FB874DE2403011F01F5F01C0E4
:10045A000B7F04C00E94A8030E94BE0300FD11C0C6
:10046A00151778F407FF08C002FF04C00B7F242F7A
:10047A00115001C020E301C020E20E94A1035150A3
:10048A00EFCF312F01FF17C03030A1F003FF06C0B4
:10049A00EE81FF812591EE83FF8305C0AE81BF8186
:1004AA002D91AE83BF830E94A103503009F05150B1
:1004BA003150EACF4BC020E3EE81FF810E9437041E
:1004CA00E887F987EE81FF813296EE83FF83E8851C
:1004DA00F985AA85BB85AE17BF0750F02F5FA8859F
:1004EA00B985EA85FB85EA1BFB0BEA87FB87EFCF19
:1004FA002A3328F003FF02C0295F01C0295D04FDE9
:10050A001AC0213320F4A885B985119709F409C0C6
:10051A00531710F000FF01C013C020E207FF0BC001
:10052A0020E3006102FF07C00B7F4A930E94AE03DB
:10053A00503009F051500E94A103503009F0515037
:10054A003150A885B985129708F0B5CF00FF08C0C9
:10055A00503031F05150E0E2EA930E94AE03F8CFF6
:10056A0010E0E0CEAC85BD850E9433040E944704AA
:10057A0064960895FF92F82E26970E9442040E94DC
:10058A00C603309719F4EFEFFFEF23C0DE0116968A
:10059A000E94E5038D010E94C603EE83FF83E0E01B
:1005AA00E887E987DE011A960E94E5030E94330470
:1005BA00FA93EA931A930A93EBE4F1E0FA93EA9333
:1005CA00DE011A96A3DE9F01AE81BF81E0E0EC93C3
:1005DA00F9010E9449042A96FF900895AA93EBB361
:1005EA00EF70AE2FE881E07FEA2BEBBB8DE08A95B6
:1005FA00F1F7DA9A8DE08A95F1F7DA988DE08A9523
:10060A00F1F77AC0AA93A881E9DFE881E295E88345
:10061A00A881E4DF85E88A95F1F76EC0AA93E8819C
:10062A00F0E0E05AFD4FE081A981AE0FEBDFD980FF
:10063A00C88022960895A2E00E94CD03ACE0E2DFD2
:10064A00A1E00E94CD03E0E0CE2EDE2E0895AA930B
:10065A00A881AA3021F0E0916402DE1648F0E0E0B9
:10066A00EA93C394AC2DDADFA881AA3009F444C016
:10067A00D394D89AA881C6DFD8983EC0BA93AA93D1
:10068A001A93A981BA81ED91A983BA831E2FE0300A
:10069A0019F0A12FDCDFF5CF188123960895AA93CC
:1006AA00EAB3E06FEABBD29AD09AD19ADA98D8988C
:1006BA00D998E881E0936402E058E0936202E88105
:1006CA00E054E0936302A4E1B0E00E94DB030E94DD
:1006DA00D3030E94D3030E94D303A0E27FDF88ECF6
:1006EA0090E00197F1F7A8E28DDFA4E08BDFA5E89F
:1006FA0089DFA6E087DF9FDF21960895BA93AA9340
:10070A00A991B991EE27FF276D91662311F03196D1
:10071A00FBCF0895BA93AA93AA27BB27E991F99127
:10072A000590002011F01196FBCFFD0108950E945B
:10073A00ED030E943B0408952A93AD85BE85EF859B
:10074A00F88909950895E889F9893497E88BF98B2E
:10075A000895AD85BE85EF85F88909950895A8891C
:10076A00B98914960E943304EE83FF83AE81BF8158
:10077A000895A889B98914960E943304EA87FB87E9
:10078A000895DE011C960E94E5030E943304089531
:10079A000E940703A3E0B0E00C94DB03A0E30E94ED
:1007AA00F30288EC90E00197F1F70895109639F07A
:1007BA0080ED97E00197F1F7A8951197C9F7089589
:1007CA000024AF0DB01D0895F195E195F04008950C
:1007DA006F2F660F660B762F0895FA9FF02DEB9F09
:1007EA00F00DEA9FE02DF10D08952AD0F6DF0EF400
:1007FA00EBDF08950024112490E1AA0FBB1F001C0F
:10080A00111C0E1A1F0A18F40E0E1F1E01C0A16039
:10081A009A9599F7FD01D001089512D0EBDF0EF4F5
:10082A00D3DF0895E894B7FF04C0A095B095119658
:10083A006894F7FDC9DFDEDFFD010EF4C5DF089518
:10084A00E894F7FF02C0C0DF6894B7FF06C0A0951E
:10085A00B095119600F8039400FA0895ED91FC9171
:10086A00119708950590F491E02D08957A936A936B
:10087A00FA93EA9308955A934A933A932A931A93C6
:10088A000A9308955D814C813B812A8119810881EF
:10089A000895AC0FBD1F05900D928A95E1F7089552
:00000001FF
