:060000000C9464000C9456
:1000060000000C9400000C9400000C9400000C946A
:1000160000000C9400000C9400000C9400000C945A
:1000260000000C9400000C9491000C9400000C94B9
:1000360000000C9400000C9400000C9400000C943A
:1000460000000C9400000C9400000C940000102793
:10005600E80364000A00010000100001100001001E
:100066000200000000000000000000000000000088
:10007600000000000000000000000000000000007A
:1000860000000000000000000000463A2025642C15
:100096002025642C2025640043463A2025642C54F0
:1000A6003A2025642C204C3A2564000080C00100CB
:1000B6000200660008000400680002006002B20048
:1000C6000000F894EE27ECBBF1E0FBBFEBBFE5BF09
:1000D6008DE0A2E0BB27ED938A95E9F780E098E0F2
:1000E600A0E6ED930197E9F7E4EBF0E085919591B1
:1000F600009761F0A591B59105901590BF01F001AB
:1001060005900D920197E1F7FB01F0CFEFE5EDBF0A
:10011600E8E0EEBFC0E6D2E00C9485010A921A929E
:100126009A93AA93BA93EA93FA93EFB7EA93F201F2
:1001360031962F01D201EDE7F0E00E94B604309728
:1001460031F4F30131963F01319744245524E99166
:10015600EFBFF991E991B991A991999119900990F7
:100166001895E0E0E2BF44245524662477240E94D3
:10017600B2030895BA93AA93E881F981A2E3B0E0A5
:100186000E949904DF01E9E0F0E00E94B104E55223
:10019600FA4FFBBDEABD0C94B00320FE02C0AAE5EF
:1001A60001C0A0E0B0E0E6DF089520FC2FC0229752
:1001B600E6B3F0E0AFEFB0E00E94DF04EA1BFB0B12
:1001C600E883F983E130A0E0FA0719F4AA24BB24F6
:1001D6001CC0E230A0E0FA0719F4E1E0F0E014C038
:1001E600E430A0E0FA0719F4E2E0F0E00DC0E830F0
:1001F600A0E0FA0719F4E3E0F0E006C0E031A0E081
:10020600FA0719F4E4E0F0E05F01229608958A14F3
:100216009B041CF4F401319602C0F40131974F019E
:10022600089523FE03C09098919A02C0909A9198DF
:1002360008951A930A93F501E819F9098F01112314
:1002460012F4E89405C000240016010614F468941C
:1002560023F822FE02C0E5DF02C09098919809912A
:1002660019910895BA93AA93A09780E2A0E0B0E00E
:10027600E0E7F0E00E94F4041A930A93F401D50132
:100286000E948B04F0E08F01FE017296FA93EA93C6
:10029600E0E9F0E0FA93EA93EEA1FFA10E942E04B2
:1002A600F3010E942E04F8010E942E040E943304DA
:1002B600A0E00E94A503DE0152960E94D503FE012E
:1002C6003296FA93EA93EEE9F0E0FA93EA93F401B0
:1002D6000E942E04F5010E942E04E0E020FCE1E0DD
:1002E600FF27662777270E94DA040E943304A1E0DD
:1002F6000E94A503DE0112960E94D503198108818A
:10030600A4960895EFEFEABBE0E0E7BBEFEFE1BBB1
:10031600E8BBECE0E3BFE0E0E2BFE9EFECBFEFB53E
:10032600E26AEFBDEEB5EA61EEBDEEE4E7BDEFE1F0
:10033600E6BDE1E0E9BFA0E10E94E603A0E0B0E08F
:1003460019DF789432DFD4018DDF73DF26DF8A145C
:100356009B0489F4E89422F820FE05C0E1E0F0E071
:10036600E615F70509F006C0E89420F86624772418
:10037600689421F81DC021FE03C0F3DEE89421F83D
:1003860020FC05C0E1E0F0E0E615F70509F005C040
:10039600689420F822F86624772420FE05C0E5E05C
:1003A600F0E0E615F70509F003C031DF662477248F
:1003B600C9CFFFCFBA93AA931A930A93AA81BB8196
:1003C60012960E94D204309759F1AA81BB811496E5
:1003D6000E94D2048F01309761F00230E0E01E07E0
:1003E60098F0F80131978F01AA81BB811496ED939D
:1003F600FC93AA81BB811296ED91FD913196FE93F5
:10040600EE933197AC81A083AA81BB810E94D2046E
:10041600FF232AF0ED91FD913196FE93EE9306C0EF
:10042600AA81BB81EFEFFFEFED93FC931981088161
:1004360025960895BA93AA9326970E94E60410E09B
:10044600AC85BD85E0E0F0E0ED93FC93EA89FB899D
:100456003196EA8BFB8B3197E4912E2FE03009F42D
:1004660015C1E12FE03039F4253211F411E002C054
:100476000E943A040AC1E130A9F4253219F40E9417
:100486003A0402C112E040E000E02D3211F401E02E
:10049600FCC02B3211F44BE2F8C0203211F440E2DA
:1004A600F4C002C0E23039F450E013E0203311F416
:1004B6000068EBC003C0E33009F0E7C0203310F05A
:1004C6002A3308F007C0AAE05A9F502DE22FE053C6
:1004D6005E0FDBC0E22FE33649F40E944104E8894F
:1004E600F989A481AA930E944704CEC0E33741F458
:1004F6000E9441040E944D040E9415041E2F0AC04A
:10050600E03761F40E9441040E944D040E942104D8
:100516001E2F086002600F7730E034C0E43611F019
:10052600E93611F4046002C0E53731F4E4E5F0E0A1
:10053600EE83FF8315E00CC0E83511F4086003C0B4
:10054600E83709F0A1C0EEE5F0E0EE83FF8314E0A2
:1005560002FF14C00E9441040E945704AB85AA23DF
:100566003AF4EA85FB850E948204EA87FB874DE21E
:10057600403011F01F5F01C00B7F04C00E94410490
:100586000E94570400FD11C0151778F407FF08C034
:1005960002FF04C00B7F242F115001C020E301C0CD
:1005A60020E20E943A045150EFCF312F01FF17C0CD
:1005B6003030A1F003FF06C0EE81FF812591EE8366
:1005C600FF8305C0AE81BF812D91AE83BF830E949C
:1005D6003A04503009F051503150EACF4BC020E375
:1005E600EE81FF810E94D604E887F987EE81FF81BC
:1005F6003296EE83FF83E885F985AA85BB85AE171B
:10060600BF0750F02F5FA885B985EA85FB85EA1BF1
:10061600FB0BEA87FB87EFCF2A3328F003FF02C0E4
:10062600295F01C0295D04FD1AC0213320F4A88585
:10063600B985119709F409C0531710F000FF01C0DE
:1006460013C020E207FF0BC020E3006102FF07C0D2
:100656000B7F4A930E944704503009F051500E9484
:100666003A04503009F051503150A885B985129797
:1006760008F0B5CF00FF08C0503031F05150E0E22D
:10068600EA930E944704F8CF10E0E0CEAC85BD8522
:100696000E94D2040E94ED0464960895FF92F82EFB
:1006A60026970E94E8040E945F04309719F4EFEF42
:1006B600FFEF23C0DE0116960E947E048D010E9484
:1006C6005F04EE83FF83E0E0E887E987DE011A96A0
:1006D6000E947E040E94D204FA93EA931A930A9324
:1006E600EDEDF1E0FA93EA93DE011A96A3DE9F019F
:1006F600AE81BF81E0E0EC93F9010E94EF042A96F7
:10070600FF900895AA93EBB3EF70AE2FE881E07FD8
:10071600EA2BEBBB8DE08A95F1F7DA9A8DE08A95A4
:10072600F1F7DA988DE08A95F1F77AC0AA93A88155
:10073600E9DFE881E295E883A881E4DF85E88A9528
:10074600F1F76EC0AA93E881F0E0E05AFD4FE08130
:10075600A981AE0FEBDFD980C88022960895A2E06A
:100766000E946604ACE0E2DFA1E00E946604E0E0DD
:10077600CE2EDE2E0895AA93A881AA3021F0E0910C
:100786006402DE1648F0E0E0EA93C394AC2DDADFAB
:10079600A881AA3009F444C0D394D89AA881C6DFA8
:1007A600D8983EC0BA93AA931A93A981BA81ED91BB
:1007B600A983BA831E2FE03019F0A12FDCDFF5CF15
:1007C600188123960895AA93EAB3E06FEABBD29AFA
:1007D600D09AD19ADA98D898D998E881E0936402A9
:1007E600E058E0936202E881E054E0936302A4E1FA
:1007F600B0E00E9474040E946C040E946C040E9483
:100806006C04A0E27FDF88EC90E00197F1F7A8E2A4
:100816008DDFA4E08BDFA5E889DFA6E087DF9FDF19
:1008260021960895BA93AA93A991B991EE27FF2725
:100836006D91662311F03196FBCF0895BA93AA9372
:10084600AA27BB27E991F9910590002011F011968E
:10085600FBCFFD0108950E9486040E94DA040895E4
:100866008CE00E9451036096E0E0EA9308952A9393
:10087600AD85BE85EF85F88909950895E889F989DA
:100886003497E88BF98B0895AD85BE85EF85F88999
:1008960009950895A889B98914960E94D204EE8311
:1008A600FF83AE81BF810895A889B98914960E94F5
:1008B600D204EA87FB870895DE011C960E947E0417
:1008C6000E94D20408950E949903A3E0B0E00C941C
:1008D6007404A0E30E94850388EC90E00197F1F789
:1008E6000895109639F080ED97E00197F1F7A895F5
:1008F6001197C9F708950024AF0DB01D0895F1951D
:10090600E195F04008956F2F660F660B762F0895D8
:10091600EA17FB07E1E009F0EE270895FA9FF02DAC
:10092600EB9FF00DEA9FE02DF10D08952AD0F6DF3A
:100936000EF4E5DF08950024112490E1AA0FBB1FF1
:10094600001C111C0E1A1F0A18F40E0E1F1E01C0E1
:10095600A1609A9599F7FD01D001089512D0EBDFB9
:100966000EF4CDDF0895E894B7FF04C0A095B095C6
:1009760011966894F7FDC3DFDEDFFD010EF4BFDFDD
:100986000895E894F7FF02C0BADF6894B7FF06C07F
:10099600A095B095119600F8039400FA0895ED918C
:1009A600FC91119708950590F491E02D08957A939E
:1009B6006A93FA93EA9308951B2EBF2FF12D1A2EF0
:1009C600AE2FE12D08955A934A933A932A931A9398
:1009D6000A9308955D814C813B812A8119810881A2
:1009E6000895AC0FBD1F05900D928A95E1F7089505
:00000001FF
