:040000000C944C0010
:100004000C9400000C9400000C9400000C9400006C
:100014000C9400000C9400000C9400000C9400005C
:100024000C9400000C9400000C9479000C940000D3
:100034000C9400000C9400000C9400000C9400003C
:100044000C9400000C9400000C9400000C9400002C
:100054001027E80364000A000100001000011000EA
:1000640001000000000000000000486921000000B9
:1000740000000000000000000000466C6F6F723A40
:100084002025640080C008000400660002006002AD
:1000940088000000F894EE27ECBBF1E0FBBFEBBF57
:1000A400E5BF8DE0A2E0BB27ED938A95E9F780E0F8
:1000B40098E0A0E6ED930197E9F7EAE8F0E085918E
:1000C4009591009761F0A591B59105901590BF01A8
:1000D400F00105900D920197E1F7FB01F0CFEFE5F8
:1000E400EDBFE8E0EEBFC0E6D2E00C94E000EA9396
:1000F400FA93EFB7EA93E6E0E2BFF20131962F01FB
:10010400EDE7F0E0E415F50519F4F30131963F014C
:10011400E991EFBFF991E9911895BA93AA93609781
:1001240080E1A0E0B0E0EEE6F0E00E94BB03FE0157
:10013400FA93EA93EEE7F0E0FA93EA93EC89FD8907
:100144000E949B030E94A80384E00E9472022896E6
:10015400E0E0EA93A0E00E94C602DE010E94F602FB
:1001640062960895E6B3F0E0AFEFB0E0AE1BBF0BCC
:100174005D01F501E130A0E0FA0719F4AA24BB24DB
:100184001CC0E230A0E0FA0719F4E1E0F0E014C08A
:10019400E430A0E0FA0719F4E2E0F0E00DC0E83042
:1001A400A0E0FA0719F4E3E0F0E006C0E031A0E0D3
:1001B400FA0719F4E4E0F0E05F010895E0E0E7BB3A
:1001C400EFEFE8BBE1BBEFB5E26AEFBDEEB5EA6184
:1001D400EEBDEEE4E7BDEFE1E6BDE4E0E3BFE6E05B
:1001E400E2BFE0E0ECBFA0E10E9407037894BADF2D
:1001F400D50193DFFCCFFFCFBA93AA931A930A9346
:10020400AA81BB8112960E94A003309759F1AA815A
:10021400BB8114960E94A0038F01309761F00230D5
:10022400E0E01E0798F0F80131978F01AA81BB81A5
:100234001496ED93FC93AA81BB811296ED91FD91E6
:100244003196FE93EE933197AC81A083AA81BB8152
:100254000E94A003FF232AF0ED91FD913196FE93B5
:10026400EE9306C0AA81BB81EFEFFFEFED93FC9301
:100274001981088125960895BA93AA9326970E9416
:10028400AD0310E0AC85BD85E0E0F0E0ED93FC93B8
:10029400EA89FB893196EA8BFB8B3197E4912E2F07
:1002A400E03009F415C1E12FE03039F4253211F4BE
:1002B40011E002C00E944F030AC1E130A9F42532C3
:1002C40019F40E944F0302C112E040E000E02D3215
:1002D40011F401E0FCC02B3211F44BE2F8C02032DF
:1002E40011F440E2F4C002C0E23039F450E013E00B
:1002F400203311F40068EBC003C0E33009F0E7C019
:10030400203310F02A3308F007C0AAE05A9F502D7A
:10031400E22FE0535E0FDBC0E22FE33649F40E9484
:100324005603E889F989A481AA930E945C03CEC08C
:10033400E33741F40E9456030E9462030E9436038D
:100344001E2F0AC0E03761F40E9456030E94620324
:100354000E9442031E2F086002600F7730E034C011
:10036400E43611F0E93611F4046002C0E53731F4E3
:10037400E4E5F0E0EE83FF8315E00CC0E83511F40A
:10038400086003C0E83709F0A1C0EEE5F0E0EE83B1
:10039400FF8314E002FF14C00E9456030E946C0302
:1003A400AB85AA233AF4EA85FB850E949703EA8782
:1003B400FB874DE2403011F01F5F01C00B7F04C08A
:1003C4000E9456030E946C0300FD11C0151778F4B7
:1003D40007FF08C002FF04C00B7F242F115001C087
:1003E40020E301C020E20E944F035150EFCF312F90
:1003F40001FF17C03030A1F003FF06C0EE81FF817A
:100404002591EE83FF8305C0AE81BF812D91AE831C
:10041400BF830E944F03503009F051503150EACF4E
:100424004BC020E3EE81FF810E94A403E887F98793
:10043400EE81FF813296EE83FF83E885F985AA85F4
:10044400BB85AE17BF0750F02F5FA885B985EA8535
:10045400FB85EA1BFB0BEA87FB87EFCF2A3328F0E7
:1004640003FF02C0295F01C0295D04FD1AC02133C6
:1004740020F4A885B985119709F409C0531710F021
:1004840000FF01C013C020E207FF0BC020E300619E
:1004940002FF07C00B7F4A930E945C03503009F0AF
:1004A40051500E944F03503009F051503150A885EB
:1004B400B985129708F0B5CF00FF08C0503031F06D
:1004C4005150E0E2EA930E945C03F8CF10E0E0CEE2
:1004D400AC85BD850E94A0030E94B4036496089570
:1004E400FF92F82E26970E94AF030E947403309760
:1004F40019F4EFEFFFEF23C0DE0116960E94930379
:100504008D010E947403EE83FF83E0E0E887E987AE
:10051400DE011A960E9493030E94A003FA93EA93C1
:100524001A930A93EEEFF0E0FA93EA93DE011A9637
:10053400A3DE9F01AE81BF81E0E0EC93F9010E944C
:10054400B6032A96FF900895AA93EBB3EF70AE2FEB
:10055400E881E07FEA2BEBBB8DE08A95F1F7DA9A2C
:100564008DE08A95F1F7DA988DE08A95F1F77AC0F3
:10057400AA93A881E9DFE881E295E883A881E4DF12
:1005840085E88A95F1F76EC0AA93E881F0E0E05A15
:10059400FD4FE081A981AE0FEBDFD980C8802296A0
:1005A4000895A2E00E947B03ACE0E2DFA1E00E9498
:1005B4007B03E0E0CE2EDE2E0895AA93A881AA3014
:1005C40021F0E0916402DE1648F0E0E0EA93C3947F
:1005D400AC2DDADFA881AA3009F444C0D394D89AA8
:1005E400A881C6DFD8983EC0BA93AA931A93A9816A
:1005F400BA81ED91A983BA831E2FE03019F0A12F9F
:10060400DCDFF5CF188123960895AA93EAB3E06F4F
:10061400EABBD29AD09AD19ADA98D898D998E88134
:10062400E0936402E058E0936202E881E054E093CE
:100634006302A4E1B0E00E9489030E9481030E9446
:1006440081030E948103A0E27FDF88EC90E00197A0
:10065400F1F7A8E28DDFA4E08BDFA5E889DFA6E04F
:1006640087DF9FDF21960895BA93AA93A991B99140
:10067400EE27FF276D91662311F03196FBCF089585
:10068400BA93AA93AA27BB27E991F9910590002070
:1006940011F01196FBCFFD0108952A93AD85BE8517
:1006A400EF85F88909950895E889F9893497E88BE5
:1006B400F98B0895AD85BE85EF85F8890995089570
:1006C400A889B98914960E94A003EE83FF83AE81A2
:1006D400BF810895A889B98914960E94A003EA8766
:1006E400FB870895DE011C960E9493030E94A003D9
:1006F40008950E94BA02A3E0B0E00C948903A0E339
:100704000E94A60288EC90E00197F1F708951096F4
:1007140039F080ED97E00197F1F7A8951197C9F7A3
:1007240008950024AF0DB01D0895F195E195F040B2
:1007340008956F2F660F660B762F0895ED91FC9147
:10074400119708950590F491E02D08957A936A9392
:10075400FA93EA9308955A934A933A932A931A93ED
:100764000A9308955D814C813B812A811981088116
:100774000895AC0FBD1F05900D928A95E1F7089579
:00000001FF
